{
  "_format": "hh-sol-artifact-1",
  "contractName": "WorldCupDataOracle",
  "sourceName": "contracts/WorldCupDataOracle.sol",
  "abi": [
    {
      "inputs": [],
      "stateMutability": "nonpayable",
      "type": "constructor"
    },
    {
      "inputs": [
        {
          "internalType": "address",
          "name": "owner",
          "type": "address"
        }
      ],
      "name": "OwnableInvalidOwner",
      "type": "error"
    },
    {
      "inputs": [
        {
          "internalType": "address",
          "name": "account",
          "type": "address"
        }
      ],
      "name": "OwnableUnauthorizedAccount",
      "type": "error"
    },
    {
      "anonymous": false,
      "inputs": [
        {
          "indexed": false,
          "internalType": "uint256",
          "name": "qualifiedCount",
          "type": "uint256"
        },
        {
          "indexed": false,
          "internalType": "uint256",
          "name": "timestamp",
          "type": "uint256"
        }
      ],
      "name": "DataUpdated",
      "type": "event"
    },
    {
      "anonymous": false,
      "inputs": [
        {
          "indexed": false,
          "internalType": "uint256",
          "name": "timestamp",
          "type": "uint256"
        }
      ],
      "name": "GroupStageDrawn",
      "type": "event"
    },
    {
      "anonymous": false,
      "inputs": [
        {
          "indexed": false,
          "internalType": "string",
          "name": "homeTeam",
          "type": "string"
        },
        {
          "indexed": false,
          "internalType": "string",
          "name": "awayTeam",
          "type": "string"
        },
        {
          "indexed": false,
          "internalType": "uint256",
          "name": "homeScore",
          "type": "uint256"
        },
        {
          "indexed": false,
          "internalType": "uint256",
          "name": "awayScore",
          "type": "uint256"
        }
      ],
      "name": "MatchResultUpdated",
      "type": "event"
    },
    {
      "anonymous": false,
      "inputs": [
        {
          "indexed": true,
          "internalType": "address",
          "name": "previousOwner",
          "type": "address"
        },
        {
          "indexed": true,
          "internalType": "address",
          "name": "newOwner",
          "type": "address"
        }
      ],
      "name": "OwnershipTransferred",
      "type": "event"
    },
    {
      "anonymous": false,
      "inputs": [
        {
          "indexed": false,
          "internalType": "string",
          "name": "teamName",
          "type": "string"
        },
        {
          "indexed": false,
          "internalType": "uint256",
          "name": "timestamp",
          "type": "uint256"
        }
      ],
      "name": "TeamQualified",
      "type": "event"
    },
    {
      "inputs": [
        {
          "internalType": "uint256",
          "name": "",
          "type": "uint256"
        }
      ],
      "name": "allTeamNames",
      "outputs": [
        {
          "internalType": "string",
          "name": "",
          "type": "string"
        }
      ],
      "stateMutability": "view",
      "type": "function"
    },
    {
      "inputs": [],
      "name": "getQualifiedCount",
      "outputs": [
        {
          "internalType": "uint256",
          "name": "current",
          "type": "uint256"
        },
        {
          "internalType": "uint256",
          "name": "total",
          "type": "uint256"
        }
      ],
      "stateMutability": "view",
      "type": "function"
    },
    {
      "inputs": [],
      "name": "getQualifiedTeams",
      "outputs": [
        {
          "internalType": "string[]",
          "name": "",
          "type": "string[]"
        }
      ],
      "stateMutability": "view",
      "type": "function"
    },
    {
      "inputs": [
        {
          "internalType": "string",
          "name": "teamName",
          "type": "string"
        }
      ],
      "name": "getTeamInfo",
      "outputs": [
        {
          "components": [
            {
              "internalType": "string",
              "name": "name",
              "type": "string"
            },
            {
              "internalType": "string",
              "name": "region",
              "type": "string"
            },
            {
              "internalType": "bool",
              "name": "qualified",
              "type": "bool"
            },
            {
              "internalType": "uint256",
              "name": "qualifiedAt",
              "type": "uint256"
            },
            {
              "internalType": "string",
              "name": "group",
              "type": "string"
            }
          ],
          "internalType": "struct WorldCupDataOracle.Team",
          "name": "",
          "type": "tuple"
        }
      ],
      "stateMutability": "view",
      "type": "function"
    },
    {
      "inputs": [],
      "name": "isGroupStageDrawn",
      "outputs": [
        {
          "internalType": "bool",
          "name": "",
          "type": "bool"
        }
      ],
      "stateMutability": "view",
      "type": "function"
    },
    {
      "inputs": [
        {
          "internalType": "string",
          "name": "teamName",
          "type": "string"
        }
      ],
      "name": "isTeamQualified",
      "outputs": [
        {
          "internalType": "bool",
          "name": "",
          "type": "bool"
        }
      ],
      "stateMutability": "view",
      "type": "function"
    },
    {
      "inputs": [],
      "name": "lastUpdateTime",
      "outputs": [
        {
          "internalType": "uint256",
          "name": "",
          "type": "uint256"
        }
      ],
      "stateMutability": "view",
      "type": "function"
    },
    {
      "inputs": [
        {
          "internalType": "uint256",
          "name": "",
          "type": "uint256"
        }
      ],
      "name": "matchResults",
      "outputs": [
        {
          "internalType": "string",
          "name": "homeTeam",
          "type": "string"
        },
        {
          "internalType": "string",
          "name": "awayTeam",
          "type": "string"
        },
        {
          "internalType": "uint256",
          "name": "homeScore",
          "type": "uint256"
        },
        {
          "internalType": "uint256",
          "name": "awayScore",
          "type": "uint256"
        },
        {
          "internalType": "bool",
          "name": "finished",
          "type": "bool"
        },
        {
          "internalType": "uint256",
          "name": "timestamp",
          "type": "uint256"
        }
      ],
      "stateMutability": "view",
      "type": "function"
    },
    {
      "inputs": [],
      "name": "owner",
      "outputs": [
        {
          "internalType": "address",
          "name": "",
          "type": "address"
        }
      ],
      "stateMutability": "view",
      "type": "function"
    },
    {
      "inputs": [],
      "name": "renounceOwnership",
      "outputs": [],
      "stateMutability": "nonpayable",
      "type": "function"
    },
    {
      "inputs": [
        {
          "internalType": "string",
          "name": "",
          "type": "string"
        }
      ],
      "name": "teams",
      "outputs": [
        {
          "internalType": "string",
          "name": "name",
          "type": "string"
        },
        {
          "internalType": "string",
          "name": "region",
          "type": "string"
        },
        {
          "internalType": "bool",
          "name": "qualified",
          "type": "bool"
        },
        {
          "internalType": "uint256",
          "name": "qualifiedAt",
          "type": "uint256"
        },
        {
          "internalType": "string",
          "name": "group",
          "type": "string"
        }
      ],
      "stateMutability": "view",
      "type": "function"
    },
    {
      "inputs": [],
      "name": "totalQualifiedTeams",
      "outputs": [
        {
          "internalType": "uint256",
          "name": "",
          "type": "uint256"
        }
      ],
      "stateMutability": "view",
      "type": "function"
    },
    {
      "inputs": [
        {
          "internalType": "address",
          "name": "newOwner",
          "type": "address"
        }
      ],
      "name": "transferOwnership",
      "outputs": [],
      "stateMutability": "nonpayable",
      "type": "function"
    },
    {
      "inputs": [
        {
          "internalType": "string[]",
          "name": "teamNames",
          "type": "string[]"
        },
        {
          "internalType": "string[]",
          "name": "groupAssignments",
          "type": "string[]"
        }
      ],
      "name": "updateGroupStage",
      "outputs": [],
      "stateMutability": "nonpayable",
      "type": "function"
    },
    {
      "inputs": [
        {
          "internalType": "string[]",
          "name": "qualifiedTeams",
          "type": "string[]"
        },
        {
          "internalType": "string[]",
          "name": "eliminatedTeams",
          "type": "string[]"
        }
      ],
      "name": "updatePlayoffResults",
      "outputs": [],
      "stateMutability": "nonpayable",
      "type": "function"
    }
  ],
  "bytecode": "0x608060405234801561000f575f80fd5b50338061003557604051631e4fbdf760e01b81525f600482015260240160405180910390fd5b61003e81610055565b506100476100a4565b602a60015542600255611008565b5f80546001600160a01b038381166001600160a01b0319831681178455604051919092169283917f8be0079c531659141344cd1fd0a4f28419497f9722a3daafe3b4186f6b6457e09190a35050565b6100f460405180604001604052806006815260200165e7be8ee59bbd60d01b8152506040518060400160405280600881526020016721a7a721a0a1a0a360c11b8152506001610dab60201b60201c565b61014760405180604001604052806009815260200168e58aa0e68bbfe5a4a760b81b8152506040518060400160405280600881526020016721a7a721a0a1a0a360c11b8152506001610dab60201b60201c565b61019a60405180604001604052806009815260200168e5a2a8e8a5bfe593a560b81b8152506040518060400160405280600881526020016721a7a721a0a1a0a360c11b8152506001610dab60201b60201c565b6101e9604051806040016040528060098152602001680e88bb1e6a0bce585b60bc1b815250604051806040016040528060048152602001635545464160e01b8152506001610dab60201b60201c565b61023560405180604001604052806006815260200165e6b395e59bbd60d01b815250604051806040016040528060048152602001635545464160e01b8152506001610dab60201b60201c565b61028460405180604001604052806009815260200168e8a5bfe78fade7899960b81b815250604051806040016040528060048152602001635545464160e01b8152506001610dab60201b60201c565b6102d060405180604001604052806006815260200165e5beb7e59bbd60d01b815250604051806040016040528060048152602001635545464160e01b8152506001610dab60201b60201c565b61031f60405180604001604052806009815260200168e891a1e89084e7899960b81b815250604051806040016040528060048152602001635545464160e01b8152506001610dab60201b60201c565b61036b604051806040016040528060068152602001650e88db7e585b60d41b815250604051806040016040528060048152602001635545464160e01b8152506001610dab60201b60201c565b6103ba604051806040016040528060098152602001687357ca72c454f34bdb60b91b815250604051806040016040528060048152602001635545464160e01b8152506001610dab60201b60201c565b61040c6040518060400160405280600c81526020016b72c2c5f3decbf2ce58725d4d60a11b815250604051806040016040528060048152602001635545464160e01b8152506001610dab60201b60201c565b61045860405180604001604052806006815260200165e7919ee5a3ab60d01b815250604051806040016040528060048152602001635545464160e01b8152506001610dab60201b60201c565b6104a760405180604001604052806009815260200168e5a5a5e59cb0e588a960b81b815250604051806040016040528060048152602001635545464160e01b8152506001610dab60201b60201c565b6104f360405180604001604052806006815260200165e68caae5a88160d01b815250604051806040016040528060048152602001635545464160e01b8152506001610dab60201b60201c565b610542604051806040016040528060098152602001680e88b8fe6a0bce585b60bc1b815250604051806040016040528060048152602001635545464160e01b8152506001610dab60201b60201c565b61059560405180604001604052806009815260200168e998bfe6a0b9e5bbb760b81b8152506040518060400160405280600881526020016710d3d393515093d360c21b8152506001610dab60201b60201c565b6105e560405180604001604052806006815260200165e5b7b4e8a5bf60d01b8152506040518060400160405280600881526020016710d3d393515093d360c21b8152506001610dab60201b60201c565b61063b6040518060400160405280600c81526020016b72c9d2f25e537357ca725d4d60a11b8152506040518060400160405280600881526020016710d3d393515093d360c21b8152506001610dab60201b60201c565b61068e60405180604001604052806009815260200168e4b98ce68b89e59cad60b81b8152506040518060400160405280600881526020016710d3d393515093d360c21b8152506001610dab60201b60201c565b6106e46040518060400160405280600c81526020016b3963a139e4e7396926b96c2560a21b8152506040518060400160405280600881526020016710d3d393515093d360c21b8152506001610dab60201b60201c565b61073760405180604001604052806009815260200168e5b7b4e68b89e59cad60b81b8152506040518060400160405280600881526020016710d3d393515093d360c21b8152506001610dab60201b60201c565b6107826040518060400160405280600681526020016539a5e979a72b60d21b8152506040518060400160405280600381526020016241464360e81b8152506001610dab60201b60201c565b6107cd60405180604001604052806006815260200165e4bc8ae69c9760d01b8152506040518060400160405280600381526020016241464360e81b8152506001610dab60201b60201c565b61081860405180604001604052806006815260200165e99fa9e59bbd60d01b8152506040518060400160405280600381526020016241464360e81b8152506001610dab60201b60201c565b6108696040518060400160405280600c81526020016b735f59f2d253f2c454f25d4d60a11b8152506040518060400160405280600381526020016241464360e81b8152506001610dab60201b60201c565b6108c060405180604001604052806012815260200171725cc672c2dcf2c455f2c2c5f34b57f2ced360711b8152506040518060400160405280600381526020016241464360e81b8152506001610dab60201b60201c565b61090b6040518060400160405280600681526020016573dd53734bd360d11b8152506040518060400160405280600381526020016241464360e81b8152506001610dab60201b60201c565b61095960405180604001604052806009815260200168396368796865396c2560ba1b8152506040518060400160405280600381526020016241464360e81b8152506001610dab60201b60201c565b6109a460405180604001604052806006815260200165e6b299e789b960d01b8152506040518060400160405280600381526020016241464360e81b8152506001610dab60201b60201c565b6109f260405180604001604052806009815260200168e691a9e6b49be593a560b81b8152506040518060400160405280600381526020016221a0a360e91b8152506001610dab60201b60201c565b610a466040518060400160405280600f81526020016e74cc5ff2d84a72c7c572c454f25d4d60891b8152506040518060400160405280600381526020016221a0a360e91b8152506001610dab60201b60201c565b610a916040518060400160405280600681526020016572cfc1f2c7c560d11b8152506040518060400160405280600381526020016221a0a360e91b8152506001610dab60201b60201c565b610ae26040518060400160405280600c81526020016b396867b961a17962a8396c2560a21b8152506040518060400160405280600381526020016221a0a360e91b8152506001610dab60201b60201c565b610b3060405180604001604052806009815260200168e7aa81e5b0bce696af60b81b8152506040518060400160405280600381526020016221a0a360e91b8152506001610dab60201b60201c565b610b7b60405180604001604052806006815260200165e58aa0e7bab360d01b8152506040518060400160405280600381526020016221a0a360e91b8152506001610dab60201b60201c565b610bcc6040518060400160405280600c81526020016b73d3c8f3c4dcf45fd573c9d360a11b8152506040518060400160405280600381526020016221a0a360e91b8152506001610dab60201b60201c565b610c176040518060400160405280600681526020016572c6cbf4cecf60d11b8152506040518060400160405280600381526020016221a0a360e91b8152506001610dab60201b60201c565b610c6560405180604001604052806009815260200168725ecdf2df4bf453c960b91b8152506040518060400160405280600381526020016221a0a360e91b8152506001610dab60201b60201c565b610cb860405180604001604052806009815260200168396ded39a2effa6a6b60ba1b8152506040518060400160405280600881526020016721a7a721a0a1a0a360c11b8152506001610dab60201b60201c565b610d0b6040518060400160405280600981526020016872dd49f345c4f3da5160b91b8152506040518060400160405280600881526020016721a7a721a0a1a0a360c11b8152506001610dab60201b60201c565b610d5b604051806040016040528060068152602001650e6b5b7e59cb60d41b8152506040518060400160405280600881526020016721a7a721a0a1a0a360c11b8152506001610dab60201b60201c565b610da9604051806040016040528060098152602001680e696b0e8a5bfe585b60bc1b815250604051806040016040528060038152602001624f464360e81b8152506001610dab60201b60201c565b565b6040518060a00160405280848152602001838152602001821515815260200142815260200160405180602001604052805f815250815250600484604051610df29190610ea0565b90815260405190819003602001902081518190610e0f9082610f4e565b5060208201516001820190610e249082610f4e565b50604082015160028201805460ff19169115159190911790556060820151600382015560808201516004820190610e5b9082610f4e565b5050600580546001810182555f919091527f036b6384b5eca791c62761152d0c79bb0604c104a5fb6f4eb0703f3154bb3db0019050610e9a8482610f4e565b50505050565b5f82518060208501845e5f920191825250919050565b634e487b7160e01b5f52604160045260245ffd5b600181811c90821680610ede57607f821691505b602082108103610efc57634e487b7160e01b5f52602260045260245ffd5b50919050565b601f821115610f4957805f5260205f20601f840160051c81016020851015610f275750805b601f840160051c820191505b81811015610f46575f8155600101610f33565b50505b505050565b81516001600160401b03811115610f6757610f67610eb6565b610f7b81610f758454610eca565b84610f02565b6020601f821160018114610fad575f8315610f965750848201515b5f19600385901b1c1916600184901b178455610f46565b5f84815260208120601f198516915b82811015610fdc5787850151825560209485019460019092019101610fbc565b5084821015610ff957868401515f19600387901b60f8161c191681555b50505050600190811b01905550565b61140d806110155f395ff3fe608060405234801561000f575f80fd5b50600436106100f0575f3560e01c80638da5cb5b11610093578063f17b342811610063578063f17b3428146101fe578063f2fde38b14610223578063f938d70014610236578063fd85b0ce1461023f575f80fd5b80638da5cb5b146101a3578063bb518161146101bd578063c8f33c91146101d4578063e7a235e9146101eb575f80fd5b80633f9d1f58116100ce5780633f9d1f581461014957806348dad578146101665780636679bab41461017b578063715018a61461019b575f80fd5b80630c173c02146100f45780630c2daf071461012157806330d8f6f814610136575b5f80fd5b610107610102366004610e7d565b61025f565b604051610118959493929190610ee5565b60405180910390f35b61013461012f366004610fdb565b610432565b005b610134610144366004610fdb565b61059a565b6003546101569060ff1681565b6040519015158152602001610118565b61016e610736565b6040516101189190611040565b61018e6101893660046110a3565b6108ba565b60405161011891906110ba565b610134610960565b5f546040516001600160a01b039091168152602001610118565b600154604080519182526030602083015201610118565b6101dd60025481565b604051908152602001610118565b6101566101f9366004610e7d565b610973565b61021161020c3660046110a3565b6109a0565b604051610118969594939291906110d3565b61013461023136600461111d565b610ae6565b6101dd60015481565b61025261024d366004610e7d565b610b23565b6040516101189190611143565b8051602081830181018051600482529282019190930120915280548190610285906111b8565b80601f01602080910402602001604051908101604052809291908181526020018280546102b1906111b8565b80156102fc5780601f106102d3576101008083540402835291602001916102fc565b820191905f5260205f20905b8154815290600101906020018083116102df57829003601f168201915b505050505090806001018054610311906111b8565b80601f016020809104026020016040519081016040528092919081815260200182805461033d906111b8565b80156103885780601f1061035f57610100808354040283529160200191610388565b820191905f5260205f20905b81548152906001019060200180831161036b57829003601f168201915b5050505060028301546003840154600485018054949560ff90931694919350906103b1906111b8565b80601f01602080910402602001604051908101604052809291908181526020018280546103dd906111b8565b80156104285780601f106103ff57610100808354040283529160200191610428565b820191905f5260205f20905b81548152906001019060200180831161040b57829003601f168201915b5050505050905085565b61043a610d51565b80518251146104885760405162461bcd60e51b8152602060048201526015602482015274e695b0e7bb84e995bfe5baa6e4b88de58cb9e9858d60581b60448201526064015b60405180910390fd5b6001546030146104da5760405162461bcd60e51b815260206004820152601d60248201527f3438e694afe79083e9989fe5b09ae69caae585a8e983a8e7a1aee5ae9a000000604482015260640161047f565b5f5b825181101561054e578181815181106104f7576104f76111f0565b60200260200101516004848381518110610513576105136111f0565b60200260200101516040516105289190611204565b908152602001604051809103902060040190816105459190611266565b506001016104dc565b506003805460ff191660011790556040517fa72c96230969381ee2abe5f0b67fc5971753c3fdb41552bf7a2316f3f44863939061058e9042815260200190565b60405180910390a15050565b6105a2610d51565b636608a7804210156105ee5760405162461bcd60e51b8152602060048201526015602482015274e99984e58aa0e8b59be5b09ae69caae7bb93e69d9f60581b604482015260640161047f565b5f5b82518110156106f6576001600484838151811061060f5761060f6111f0565b60200260200101516040516106249190611204565b90815260200160405180910390206002015f6101000a81548160ff021916908315150217905550426004848381518110610660576106606111f0565b60200260200101516040516106759190611204565b9081526040519081900360200190206003015560018054905f61069783611321565b91905055507f76f8ef98698a3452bd105fdf7e48982f0dc67a438380405dd471382b667c165b8382815181106106cf576106cf6111f0565b6020026020010151426040516106e6929190611345565b60405180910390a16001016105f0565b504260028190556001546040517f5ac7f55879f610b0e93ec74d5d8857f9b3bbba8d486cc8156ab0282fba4273f99261058e928252602082015260400190565b60605f60015467ffffffffffffffff81111561075457610754610dcc565b60405190808252806020026020018201604052801561078757816020015b60608152602001906001900390816107725790505b5090505f805b6005548110156108b2576004600582815481106107ac576107ac6111f0565b905f5260205f20016040516107c19190611366565b9081526040519081900360200190206002015460ff16156108aa57600581815481106107ef576107ef6111f0565b905f5260205f20018054610802906111b8565b80601f016020809104026020016040519081016040528092919081815260200182805461082e906111b8565b80156108795780601f1061085057610100808354040283529160200191610879565b820191905f5260205f20905b81548152906001019060200180831161085c57829003601f168201915b5050505050838381518110610890576108906111f0565b602002602001018190525081806108a690611321565b9250505b60010161078d565b509092915050565b600581815481106108c9575f80fd5b905f5260205f20015f9150905080546108e1906111b8565b80601f016020809104026020016040519081016040528092919081815260200182805461090d906111b8565b80156109585780601f1061092f57610100808354040283529160200191610958565b820191905f5260205f20905b81548152906001019060200180831161093b57829003601f168201915b505050505081565b610968610d51565b6109715f610d7d565b565b5f6004826040516109849190611204565b9081526040519081900360200190206002015460ff1692915050565b60066020525f90815260409020805481906109ba906111b8565b80601f01602080910402602001604051908101604052809291908181526020018280546109e6906111b8565b8015610a315780601f10610a0857610100808354040283529160200191610a31565b820191905f5260205f20905b815481529060010190602001808311610a1457829003601f168201915b505050505090806001018054610a46906111b8565b80601f0160208091040260200160405190810160405280929190818152602001828054610a72906111b8565b8015610abd5780601f10610a9457610100808354040283529160200191610abd565b820191905f5260205f20905b815481529060010190602001808311610aa057829003601f168201915b5050506002840154600385015460048601546005909601549495919490935060ff909116915086565b610aee610d51565b6001600160a01b038116610b1757604051631e4fbdf760e01b81525f600482015260240161047f565b610b2081610d7d565b50565b610b556040518060a0016040528060608152602001606081526020015f151581526020015f8152602001606081525090565b600482604051610b659190611204565b90815260200160405180910390206040518060a00160405290815f82018054610b8d906111b8565b80601f0160208091040260200160405190810160405280929190818152602001828054610bb9906111b8565b8015610c045780601f10610bdb57610100808354040283529160200191610c04565b820191905f5260205f20905b815481529060010190602001808311610be757829003601f168201915b50505050508152602001600182018054610c1d906111b8565b80601f0160208091040260200160405190810160405280929190818152602001828054610c49906111b8565b8015610c945780601f10610c6b57610100808354040283529160200191610c94565b820191905f5260205f20905b815481529060010190602001808311610c7757829003601f168201915b5050509183525050600282015460ff161515602082015260038201546040820152600482018054606090920191610cca906111b8565b80601f0160208091040260200160405190810160405280929190818152602001828054610cf6906111b8565b8015610d415780601f10610d1857610100808354040283529160200191610d41565b820191905f5260205f20905b815481529060010190602001808311610d2457829003601f168201915b5050505050815250509050919050565b5f546001600160a01b031633146109715760405163118cdaa760e01b815233600482015260240161047f565b5f80546001600160a01b038381166001600160a01b0319831681178455604051919092169283917f8be0079c531659141344cd1fd0a4f28419497f9722a3daafe3b4186f6b6457e09190a35050565b634e487b7160e01b5f52604160045260245ffd5b604051601f8201601f1916810167ffffffffffffffff81118282101715610e0957610e09610dcc565b604052919050565b5f82601f830112610e20575f80fd5b813567ffffffffffffffff811115610e3a57610e3a610dcc565b610e4d601f8201601f1916602001610de0565b818152846020838601011115610e61575f80fd5b816020850160208301375f918101602001919091529392505050565b5f60208284031215610e8d575f80fd5b813567ffffffffffffffff811115610ea3575f80fd5b610eaf84828501610e11565b949350505050565b5f81518084528060208401602086015e5f602082860101526020601f19601f83011685010191505092915050565b60a081525f610ef760a0830188610eb7565b8281036020840152610f098188610eb7565b905085151560408401528460608401528281036080840152610f2b8185610eb7565b98975050505050505050565b5f82601f830112610f46575f80fd5b813567ffffffffffffffff811115610f6057610f60610dcc565b8060051b610f7060208201610de0565b91825260208185018101929081019086841115610f8b575f80fd5b6020860192505b83831015610fd157823567ffffffffffffffff811115610fb0575f80fd5b610fbf886020838a0101610e11565b83525060209283019290910190610f92565b9695505050505050565b5f8060408385031215610fec575f80fd5b823567ffffffffffffffff811115611002575f80fd5b61100e85828601610f37565b925050602083013567ffffffffffffffff81111561102a575f80fd5b61103685828601610f37565b9150509250929050565b5f602082016020835280845180835260408501915060408160051b8601019250602086015f5b8281101561109757603f19878603018452611082858351610eb7565b94506020938401939190910190600101611066565b50929695505050505050565b5f602082840312156110b3575f80fd5b5035919050565b602081525f6110cc6020830184610eb7565b9392505050565b60c081525f6110e560c0830189610eb7565b82810360208401526110f78189610eb7565b604084019790975250506060810193909352901515608083015260a09091015292915050565b5f6020828403121561112d575f80fd5b81356001600160a01b03811681146110cc575f80fd5b602081525f825160a0602084015261115e60c0840182610eb7565b90506020840151601f1984830301604085015261117b8282610eb7565b915050604084015115156060840152606084015160808401526080840151601f198483030160a08501526111af8282610eb7565b95945050505050565b600181811c908216806111cc57607f821691505b6020821081036111ea57634e487b7160e01b5f52602260045260245ffd5b50919050565b634e487b7160e01b5f52603260045260245ffd5b5f82518060208501845e5f920191825250919050565b601f82111561126157805f5260205f20601f840160051c8101602085101561123f5750805b601f840160051c820191505b8181101561125e575f815560010161124b565b50505b505050565b815167ffffffffffffffff81111561128057611280610dcc565b6112948161128e84546111b8565b8461121a565b6020601f8211600181146112c6575f83156112af5750848201515b5f19600385901b1c1916600184901b17845561125e565b5f84815260208120601f198516915b828110156112f557878501518255602094850194600190920191016112d5565b508482101561131257868401515f19600387901b60f8161c191681555b50505050600190811b01905550565b5f6001820161133e57634e487b7160e01b5f52601160045260245ffd5b5060010190565b604081525f6113576040830185610eb7565b90508260208301529392505050565b5f808354611373816111b8565b60018216801561138a576001811461139f576113cc565b60ff19831686528115158202860193506113cc565b865f5260205f205f5b838110156113c4578154888201526001909101906020016113a8565b505081860193505b50919594505050505056fea2646970667358221220337bffed0af077adfaca5750b9230c235fea059978f816312547ee4c6052643f64736f6c634300081a0033",
  "linkReferences": {},
  "deployedLinkReferences": {}
}